:100000000C9463000C948B000C948B000C94C30232
:100010000C94C3020C94C3020C948B000C948B00C0
:100020000C948B000C948B000C948B000C948B0024
:100030000C948B000C948B000C948B000C948B0014
:100040000C9479020C948B000C948B000C948B0014
:100050000C948B000C948B000C948B000C948B00F4
:100060000C948B000C948B000000000023002600F1
:10007000290000000000240027002A0000000000E2
:10008000250028002B0004040404040404040202D4
:100090000202020203030303030301020408102007
:1000A0004080010204081020010204081020000012
:1000B0000008000201000003040700000000000027
:1000C00000006D05DA0511241FBECFEFD8E0DEBFBA
:1000D000CDBF12E0A0E0B1E0E0EEFDE002C005908F
:1000E0000D92A631B107D9F724E0A6E1B2E001C034
:1000F0001D92A438B207E1F710E0C2E6D0E004C0D8
:100100002197FE010E94DD06C136D107C9F70E9482
:100110003B030C94E3060C94000090E0FC01E255D4
:10012000FF4F2491FC01E656FF4F3491FC01EA5742
:10013000FF4FE491EE23C9F0222339F0233001F17F
:10014000A8F4213019F1223029F1F0E0EE0FFF1F61
:10015000E458FF4FA591B4918FB7F894EC916111D9
:1001600026C030953E233C938FBF08952730A9F0D9
:100170002830C9F0243049F7809180008F7D03C07A
:10018000809180008F7780938000DFCF84B58F7758
:1001900084BDDBCF84B58F7DFBCF8091B0008F779E
:1001A0008093B000D2CF8091B0008F7DF9CF3E2BED
:1001B000DACFCF93DF9390E0FC01E656FF4F249116
:1001C0008A579F4FFC0184918823D1F090E0880FDB
:1001D000991FFC01EE58FF4FA591B491FC01E45822
:1001E000FF4FC591D49161110EC09FB7F8948C91C7
:1001F000E22FE0958E238C932881E223E8839FBF32
:10020000DF91CF9108958FB7F894EC91E22BEC93A6
:100210008FBFF6CF3FB7F89480918004909181040E
:10022000A0918204B091830426B5A89B05C02F3FFE
:1002300019F00196A11DB11D3FBFBA2FA92F982F0C
:100240008827BC01CD01620F711D811D911D42E007
:10025000660F771F881F991F4A95D1F708958F92CF
:100260009F92AF92BF92CF92DF92EF92FF924B019B
:100270005C010E940A016B017C010E940A016C1959
:100280007D098E099F09683E734081059105A8F399
:1002900021E0821A9108A108B10888EEC80E83E017
:1002A000D81EE11CF11C81149104A104B10429F7AA
:1002B000FF90EF90DF90CF90BF90AF909F908F9086
:1002C0000895AF92BF92CF92DF92EF92FF920F9379
:1002D0001F93CF93DF936C017B018B01040F151FDC
:1002E000EB015E01AE18BF08C017D10759F0699144
:1002F000D601ED91FC910190F081E02DC6010995A8
:10030000892B79F7C501DF91CF911F910F91FF9054
:10031000EF90DF90CF90BF90AF900895209158025A
:10032000309159022817390771F490915602809143
:100330005702981741F0E0915602F0E0EA5EFD4F57
:10034000808190E008958FEF9FEF08950895EF92D8
:10035000FF920F931F93CF93DF93DC015C96ED9098
:10036000FC905D97E114F10479F481E090E013963C
:100370009C938E93129790E080E0DF91CF911F9134
:100380000F91FF90EF9008955196ED91FC91529747
:1003900050968C915097982F90950FB75E962C9110
:1003A0005E97122F127021FD6095F8942081112321
:1003B00019F1282B2083E7012197F1F728E0462F38
:1003C00050E0308160FF1AC0382B3083E70121975D
:1003D000F1F7BA0175956795215089F7112381F0DE
:1003E0008081892380830FBF5C968D919C910197BA
:1003F000F1F781E090E0C1CF2923DCCF3923E5CFAD
:100400009081892BEFCF2091580230915902281703
:10041000390761F4809157022091560290E0805C88
:100420009F4F821B91098F739927089590E080E078
:100430000895209158023091590228173907B9F4CC
:100440009091560280915702981789F0E0915602D8
:10045000F0E0EA5EFD4F80812091560230E02F5F90
:100460003F4F2F7333272093560290E008958FEF6C
:100470009FEF089590E080E008951F93CF93DF935E
:10048000C82F162FD42F682F8AE592E00E94A7016B
:10049000612F8AE592E00E94A701C07FC13B40F432
:1004A0006D2F8AE592E0DF91CF911F910C94A70107
:1004B000DF91CF911F91089580E091E0EBE7F3E0A9
:1004C000DF019C011D9221503040E1F7E9E7F2E0A5
:1004D000DF019C011D9221503040E1F7E4E0F1E0A2
:1004E000ABE7B3E081918D9332E0E430F307D1F7CD
:1004F00008951F920F920FB60F9211242F933F93DE
:100500008F939F93AF93BF9380917C0490917D04D0
:10051000A0917E04B0917F0430917B0423E0230FEF
:100520002D3758F50196A11DB11D20937B048093B2
:100530007C0490937D04A0937E04B0937F0480910B
:10054000800490918104A0918204B091830401966B
:10055000A11DB11D8093800490938104A093820417
:10056000B0938304BF91AF919F918F913F912F9151
:100570000F900FBE0F901F90189526E8230F02963C
:10058000A11DB11DD2CF1F920F920FB60F92112451
:100590002F933F934F935F936F937F938F939F938B
:1005A000AF93BF93EF93FF93E0915802F0915902FC
:1005B000309749F0A685B7858585968D91FF14C043
:1005C0009C918923A1F4FF91EF91BF91AF919F91ED
:1005D0008F917F916F915F914F913F912F910F90EC
:1005E0000FBE0F901F9018959C91892361F7A389E6
:1005F000B4899C918589809589238C938689978974
:100600000197F1F7608D718DA685B785558538E026
:1006100020E0CB010197F1F7822F90E09595879527
:10062000282F4C91452309F02068315091F7868D91
:1006300081FD20958091570290E001968F73992754
:1006400030915602381799F0A0915702B0E0AA5E97
:10065000BD4F2C9380935702828D938D0197F1F7B4
:10066000A389B4898C919589892B8C93ACCF868D85
:100670008160868FF1CF789484B5826084BD84B523
:10068000816084BD85B5826085BD85B5816085BD8D
:1006900080916E00816080936E0010928100809145
:1006A00081008260809381008091810081608093CD
:1006B0008100809180008160809380008091B100F2
:1006C00084608093B1008091B00081608093B0001D
:1006D00080917A00846080937A0080917A008260B1
:1006E00080937A0080917A00816080937A00809173
:1006F0007A00806880937A001092C100109275028F
:10070000109274021092730210927202109271028F
:10071000109270028DE790E09093770280937602BA
:1007200090916602963108F047C02DE230E0309398
:100730007102209370022BE730E030937302209314
:10074000720224E530E03093750220937402209108
:10075000680084E0983048F031E09E3008F430E0E2
:1007600081E001C0880F3A95EAF7822B80936800F8
:100770002DE630E0983050F02BE630E09E3030F03F
:100780002CE630E0963110F030E020E030936E023D
:1007900020936D02292F30E0983008F07DC181E070
:1007A00001C0880F9A95EAF780936F0280917602D4
:1007B000909177020197F1F7809174029091750200
:1007C000892B49F1E0915802F091590262E0EA3533
:1007D000F60709F1309739F0A389B4899C9185898E
:1007E000809589238C93809178028E7F8093780204
:1007F00010925702109256028AE592E090935902A5
:1008000080935802E0916D02F0916E028081909188
:100810006F02892B808361E084E00E94D90060E050
:1008200084E00E948D0064E670E080E090E00E9429
:100830002F0161E084E00E948D0064E670E080E0BA
:1008400090E00E942F010E945C0240E26AE080EB8F
:100850000E943D024AE36AE081EB0E943D0240E6CD
:100860006AE082EB0E943D0240E46AE083EB0E9472
:100870003D0240E26AE084EB0E943D024AE36AE006
:1008800085EB0E943D0240E66AE086EB0E943D0255
:1008900040E46AE087EB0E943D0240E26AE088EBB8
:1008A0000E943D024AE36AE08AEB0E943D0240E674
:1008B0006AE08BEB0E943D0240E46AE08CEB0E9410
:1008C0003D0240E26AE08DEB0E943D024AE36AE0AD
:1008D0008EEB0E943D0240E66AE08FEB0E943D02F3
:1008E000C0E040E467E08C2F806B0E943D02CF5F48
:1008F000C031B9F7C0E040E46BE58C2F806B0E94FB
:100900003D02CF5FC031B9F7C0E040E06C2F8C2FC3
:10091000806C0E943D02CF5FC031B9F7FBE76F2EBC
:10092000F4E07F2EA0E1CA2ED12CEBE7EE2EE3E01F
:10093000FE2EE7015E01912C0E94420660E470E009
:100940000E94B5068C01085E1F4F0E94420660E2BD
:1009500070E00E94B506482FD5018D915D01602F92
:10096000882309F4A6C0892D80690E943D029394D2
:10097000B0E19B12E1CF60966C167D06D9F66EE36E
:1009800070E080E090E00E942F0180E0EBE7F3E070
:10099000A9E7B2E001900D928A95E1F7C9E7D2E0AC
:1009A00010E000E02701F0E0E0E0D2014D912D01E0
:1009B00030E020E0AA24AA94BA2CC501800F911F30
:1009C000B6010E94B50654E0880F991F5A95E1F7C9
:1009D00088248A94982CBC0165587C4F1B01C40163
:1009E0008E0F9F1FB6010E94B506D101A80FB91F37
:1009F0008C91280F311D7FEF871A970A82E08816A5
:100A0000910469F79FEFA91AB90AA2E0AA16B104E6
:100A1000A1F6241B3109C9010297029708F44CC0C2
:100A2000442309F455C0DE01AE0FBF1F1C9231965E
:100A3000E031F10509F0B9CF0F5F1F4F609670E10B
:100A4000E70EF11C0031110509F0ACCF80E0E9E7B9
:100A5000F2E0ABE7B3E001900D928A95E1F7809167
:100A6000790390917A03869731F40E945C02109288
:100A70007A03109279038091790390917A03019619
:100A800090937A038093790380E090E0892B09F4B6
:100A90004CCF0E94000049CF9E3040F428503109CD
:100AA00081E001C0880F2A95EAF77ECE2E503109E9
:100AB000F7CF892D806859CF2330310509F0B7CFA2
:100AC0004111B5CFDE01AE0FBF1F61E06C93AFCF18
:100AD0002330310509F0ABCFF5CF10925D021092B3
:100AE0005C0288EE93E0A0E0B0E080935E02909319
:100AF0005F02A0936002B093610288E092E090935D
:100B00005B0280935A02109271021092700210924E
:100B10007302109272021092750210927402109277
:100B2000770210927602609178026E7F6D7F6093FB
:100B300078026695617081E0682783E00E948D00ED
:100B400061E083E00E94D900EDE9F0E0E491E093F8
:100B50006A02E9E8F0E0E491F0E0EE0FFF1FE458EC
:100B6000FF4F8591949190936C0280936B0260E0AB
:100B700082E00E94D9008091780281FD04C061E08A
:100B800082E00E948D0082E080936602ECE9F0E052
:100B9000E491E0936702E8E8F0E0E491F0E0EE0F22
:100BA000FF1FE859FF4F85919491909369028093BC
:100BB0006802089588E092E090935B0280935A0265
:100BC00080915802909159028A55924071F4E091B7
:100BD0006D02F0916E02908180916F028095892361
:100BE0008083109259021092580208958F929F921A
:100BF000AF92BF92CF92DF92EF92FF92CF93DF93AB
:100C0000EC01688179818A819B816115710581057B
:100C1000910521F464E279ED8BE597E02DE133EF66
:100C200041E050E00E94520649015A019B01AC018B
:100C3000A7EAB1E40E9471066B017C01ACEEB4EF4F
:100C4000A50194010E947F06DC01CB018C0D9D1D46
:100C5000AE1DBF1DB7FF03C00197A109B04888832F
:100C60009983AA83BB839F77DF91CF91FF90EF9009
:100C7000DF90CF90BF90AF909F908F9008950E948B
:100C8000F605089580E091E00E94F6050895B0E031
:100C9000A0E08093000190930101A0930201B09322
:100CA00003010895052E97FB1EF400940E94690627
:100CB00057FD07D00E94840607FC03D04EF40C9425
:100CC000690650954095309521953F4F4F4F5F4FA6
:100CD000089590958095709561957F4F8F4F9F4FA8
:100CE00008950E94A606A59F900DB49F900DA49F05
:100CF000800D911D11240895B7FF0C9471060E9478
:100D00007106821B930B0895A1E21A2EAA1BBB1B2E
:100D1000FD010DC0AA1FBB1FEE1FFF1FA217B307C7
:100D2000E407F50720F0A21BB30BE40BF50B661FDD
:100D3000771F881F991F1A9469F7609570958095A1
:100D400090959B01AC01BD01CF010895A29FB00118
:100D5000B39FC001A39F700D811D1124911DB29FEF
:100D6000700D811D1124911D089597FB072E16F417
:100D7000009407D077FD09D00E94C90607FC05D072
:100D80003EF4909581959F4F0895709561957F4FA2
:100D90000895AA1BBB1B51E107C0AA1FBB1FA617C2
:100DA000B70710F0A61BB70B881F991F5A95A9F714
:100DB00080959095BC01CD010895EE0FFF1F059021
:100DC000F491E02D099410E0C2E6D0E004C0FE01E9
:100DD0000E94DD062196C336D107C9F7F894FFCFEC
:100DE0000100000000000000000000000000000002
:100DF00000000000000000000000000000000000F3
:100E000000000000000000000000000000000000E2
:100E100000000000000000000000000000000000D2
:100E200000000000000000000000000101000000C0
:100E300000000000000000000000000101000000B0
:100E4000000000000000000100000100000100009F
:100E5000010000000000000001000001010000018D
:100E6000000000000000000001000001010000017E
:100E7000000000000000000100000100000100006F
:100E8000010000000000000000000001010000005F
:100E90000000000000000000000000010100000050
:100EA0000000000000000000000000000000000042
:100EB0000000000000000000000000000000000032
:100EC0000000000000000000000000000000000022
:100ED0000000000000000000000000000000000012
:100EE0000000000000000000A70161013A02A60115
:060EF000030219028E014D
:00000001FF
