:100000000C9463000C948B000C948B000C94A6024F
:100010000C94A6020C94A6020C948B000C948B00FA
:100020000C948B000C948B000C948B000C948B0024
:100030000C948B000C948B000C948B000C948B0014
:100040000C945C020C948B000C948B000C948B0031
:100050000C948B000C948B000C948B000C948B00F4
:100060000C948B000C948B000000000023002600F1
:10007000290000000000240027002A0000000000E2
:10008000250028002B0004040404040404040202D4
:100090000202020203030303030301020408102007
:1000A0004080010204081020010204081020000012
:1000B0000008000201000003040700000000000027
:1000C0000000F504620511241FBECFEFD8E0DEBFAB
:1000D000CDBF11E0A0E0B1E0E0EFFCE002C0059090
:1000E0000D92A631B107D9F721E0A6E1B1E001C038
:1000F0001D92A238B207E1F710E0C2E6D0E004C0DA
:100100002197FE010E946506C136D107C9F70E94FA
:100110001E030C946B060C94000090E0FC01E25569
:10012000FF4F2491FC01E656FF4F3491FC01EA5742
:10013000FF4FE491EE23C9F0222339F0233001F17F
:10014000A8F4213019F1223029F1F0E0EE0FFF1F61
:10015000E458FF4FA591B4918FB7F894EC916111D9
:1001600026C030953E233C938FBF08952730A9F0D9
:100170002830C9F0243049F7809180008F7D03C07A
:10018000809180008F7780938000DFCF84B58F7758
:1001900084BDDBCF84B58F7DFBCF8091B0008F779E
:1001A0008093B000D2CF8091B0008F7DF9CF3E2BED
:1001B000DACFCF93DF9390E0FC01E656FF4F249116
:1001C0008A579F4FFC0184918823D1F090E0880FDB
:1001D000991FFC01EE58FF4FA591B491FC01E45822
:1001E000FF4FC591D49161110EC09FB7F8948C91C7
:1001F000E22FE0958E238C932881E223E8839FBF32
:10020000DF91CF9108958FB7F894EC91E22BEC93A6
:100210008FBFF6CF3FB7F89480917E0190917F0118
:10022000A0918001B091810126B5A89B05C02F3F08
:1002300019F00196A11DB11D3FBFBA2FA92F982F0C
:100240008827BC01CD01620F711D811D911D42E007
:10025000660F771F881F991F4A95D1F708958F92CF
:100260009F92AF92BF92CF92DF92EF92FF924B019B
:100270005C010E940A016B017C010E940A016C1959
:100280007D098E099F09683E734081059105A8F399
:1002900021E0821A9108A108B10888EEC80E83E017
:1002A000D81EE11CF11C81149104A104B10429F7AA
:1002B000FF90EF90DF90CF90BF90AF909F908F9086
:1002C0000895AF92BF92CF92DF92EF92FF920F9379
:1002D0001F93CF93DF936C017B018B01040F151FDC
:1002E000EB015E01AE18BF08C017D10759F0699144
:1002F000D601ED91FC910190F081E02DC6010995A8
:10030000892B79F7C501DF91CF911F910F91FF9054
:10031000EF90DF90CF90BF90AF900895209158015B
:10032000309159012817390771F490915601809145
:100330005701981741F0E0915601F0E0EA5EFE4F58
:10034000808190E008958FEF9FEF08950895EF92D8
:10035000FF920F931F93CF93DF93DC015C96ED9098
:10036000FC905D97E114F10479F481E090E013963C
:100370009C938E93129790E080E0DF91CF911F9134
:100380000F91FF90EF9008955196ED91FC91529747
:1003900050968C915097982F90950FB75E962C9110
:1003A0005E97122F127021FD6095F8942081112321
:1003B00019F1282B2083E7012197F1F728E0462F38
:1003C00050E0308160FF1AC0382B3083E70121975D
:1003D000F1F7BA0175956795215089F7112381F0DE
:1003E0008081892380830FBF5C968D919C910197BA
:1003F000F1F781E090E0C1CF2923DCCF3923E5CFAD
:100400009081892BEFCF2091580130915901281705
:10041000390761F4809157012091560190E0805C8A
:100420009F4F821B91098F739927089590E080E078
:100430000895209158013091590128173907B9F4CE
:100440009091560180915701981789F0E0915601DB
:10045000F0E0EA5EFE4F80812091560130E02F5F90
:100460003F4F2F7333272093560190E008958FEF6D
:100470009FEF089590E080E008951F93CF93DF935E
:10048000C82F162FD42F682F8AE591E00E94A7016C
:10049000612F8AE591E00E94A701C07FC13B40F433
:1004A0006D2F8AE591E0DF91CF911F910C94A70108
:1004B000DF91CF911F9108951F920F920FB60F9267
:1004C00011242F933F938F939F93AF93BF9380916A
:1004D0007A0190917B01A0917C01B0917D013091D6
:1004E000790123E0230F2D3758F50196A11DB11D89
:1004F0002093790180937A0190937B01A0937C01F2
:10050000B0937D0180917E0190917F01A091800147
:10051000B09181010196A11DB11D80937E01909340
:100520007F01A0938001B0938101BF91AF919F9112
:100530008F913F912F910F900FBE0F901F901895A4
:1005400026E8230F0296A11DB11DD2CF1F920F9254
:100550000FB60F9211242F933F934F935F936F9396
:100560007F938F939F93AF93BF93EF93FF93E0910C
:100570005801F0915901309749F0A685B7858585D6
:10058000968D91FF14C09C918923A1F4FF91EF9166
:10059000BF91AF919F918F917F916F915F914F919B
:1005A0003F912F910F900FBE0F901F9018959C9127
:1005B000892361F7A389B4899C91858980958923D2
:1005C0008C93868997890197F1F7608D718DA68547
:1005D000B785558538E020E0CB010197F1F7822FF0
:1005E00090E095958795282F4C91452309F0206838
:1005F000315091F7868D81FD20958091570190E0D3
:1006000001968F73992730915601381799F0A09170
:100610005701B0E0AA5EBE4F2C9380935701828DA4
:10062000938D0197F1F7A389B4898C919589892BD2
:100630008C93ACCF868D8160868FF1CF789484B512
:10064000826084BD84B5816084BD85B5826085BDCE
:1006500085B5816085BD80916E00816080936E005C
:10066000109281008091810082608093810080914E
:1006700081008160809381008091800081608093FF
:1006800080008091B10084608093B1008091B000BF
:1006900081608093B00080917A00846080937A00BA
:1006A00080917A00826080937A0080917A008160E4
:1006B00080937A0080917A00806880937A0010920B
:1006C000C100109275011092740110927301109282
:1006D000720110927101109270018DE790E0909379
:1006E00077018093760190916601963108F047C0BA
:1006F0002DE230E030937101209370012BE730E060
:10070000309373012093720124E530E0309375013A
:10071000209374012091680084E0983048F031E023
:100720009E3008F430E081E001C0880F3A95EAF786
:10073000822B809368002DE630E0983050F02BE655
:1007400030E09E3030F02CE630E0963110F030E0B2
:1007500020E030936E0120936D01292F30E0983016
:1007600008F036C181E001C0880F9A95EAF78093BE
:100770006F0180917601909177010197F1F7809157
:10078000740190917501892B49F1E0915801F09124
:10079000590141E0EA35F40709F1309739F0A389AE
:1007A000B4899C918589809589238C938091780167
:1007B0008E7F8093780110925701109256018AE53E
:1007C00091E09093590180935801E0916D01F0916F
:1007D0006E01808190916F01892B808361E084E0BC
:1007E0000E94D90060E084E00E948D0064E670E021
:1007F00080E090E00E942F0161E084E00E948D0083
:1008000064E670E080E090E00E942F0140E667E03F
:1008100080EB0E943D0240E667E081EB0E943D02D2
:1008200040E667E082EB0E943D0240E667E089EB2C
:100830000E943D0240E26AE080EB0E943D024AE3F2
:100840006AE081EB0E943D0240E66AE082EB0E9492
:100850003D0240E46AE089EB0E943D0240E46BE522
:1008600080EB0E943D0240E46BE581EB0E943D027B
:1008700040E46BE582EB0E943D028EE1682E712C14
:1008800094E2892E912CC0E2D0E008E110E020E053
:10089000222E20E0322E0E94CA0564E170E00E9400
:1008A0003D0640E0682F80EC0E943D020E94CA0590
:1008B000B3010E943D066AE5680F40E081EC0E94AA
:1008C0003D020E94CA05B3010E943D0662E3680F23
:1008D00040E082EC0E943D020E94CA055C010E9439
:1008E000CA056C010E94CA057C010E94CA059C01D0
:1008F000C501B4010E943D065C0148E1A40EB11C93
:10090000C901BE010E943D06482F6A2D80E90E9460
:100910003D020E94CA059C01C601B8010E943D0625
:100920006C0140E3C40ED11CC901BE010E943D060A
:10093000482F6C2D81E90E943D020E94CA059C014E
:10094000C701B8010E943D062C0144E2440E511C2F
:10095000C901BE010E943D06482F642D82E90E9414
:100960003D020E94CA057C010E94CA059C01C70184
:100970006CE170E00E943D06482FC901B4010E945D
:100980003D0664E2680F89E90E943D026DE770E070
:1009900080E090E00E942F0140E66A2D80E80E94EE
:1009A0003D0240E66C2D81E80E943D0240E6642D48
:1009B00082E80E943D026DE770E080E090E00E94D6
:1009C0002F012114310409F466CF0E94000063CF87
:1009D0009E3040F42850310981E001C0880F2A95EB
:1009E000EAF7C5CE2E503109F7CF10925D01109273
:1009F0005C0188EE93E0A0E0B0E080935E0190930C
:100A00005F01A0936001B093610188E091E0909351
:100A10005B0180935A011092710110927001109243
:100A2000730110927201109275011092740110926C
:100A3000770110927601609178016E7F6D7F6093EF
:100A400078016695617081E0682783E00E948D00DF
:100A500061E083E00E94D900EDE9F0E0E491E093E9
:100A60006A01E9E8F0E0E491F0E0EE0FFF1FE458DE
:100A7000FF4F8591949190936C0180936B0160E09E
:100A800082E00E94D9008091780181FD04C061E07C
:100A900082E00E948D0082E080936601ECE9F0E044
:100AA000E491E0936701E8E8F0E0E491F0E0EE0F14
:100AB000FF1FE859FF4F85919491909369018093AE
:100AC0006801089588E091E090935B0180935A015A
:100AD00080915801909159018A55914071F4E091AB
:100AE0006D01F0916E01908180916F018095892355
:100AF0008083109259011092580108958F929F920D
:100B0000AF92BF92CF92DF92EF92FF92CF93DF939B
:100B1000EC01688179818A819B816115710581056C
:100B2000910521F464E279ED8BE597E02DE133EF57
:100B300041E050E00E94DA0549015A019B01AC01F5
:100B4000A7EAB1E40E94F9056B017C01ACEEB4EFB9
:100B5000A50194010E940706DC01CB018C0D9D1DAF
:100B6000AE1DBF1DB7FF03C00197A109B048888320
:100B70009983AA83BB839F77DF91CF91FF90EF90FA
:100B8000DF90CF90BF90AF909F908F9008950E947C
:100B90007E05089580E091E00E947E050895B0E012
:100BA000A0E08093000190930101A0930201B09313
:100BB00003010895052E97FB1EF400940E94F10591
:100BC00057FD07D00E940C0607FC03D04EF40C948E
:100BD000F10550954095309521953F4F4F4F5F4F10
:100BE000089590958095709561957F4F8F4F9F4F99
:100BF00008950E942E06A59F900DB49F900DA49F6E
:100C0000800D911D11240895B7FF0C94F9050E94E1
:100C1000F905821B930B0895A1E21A2EAA1BBB1B98
:100C2000FD010DC0AA1FBB1FEE1FFF1FA217B307B8
:100C3000E407F50720F0A21BB30BE40BF50B661FCE
:100C4000771F881F991F1A9469F760957095809592
:100C500090959B01AC01BD01CF010895A29FB00109
:100C6000B39FC001A39F700D811D1124911DB29FE0
:100C7000700D811D1124911D089597FB072E16F408
:100C8000009407D077FD09D00E94510607FC05D0DB
:100C90003EF4909581959F4F0895709561957F4F93
:100CA0000895AA1BBB1B51E107C0AA1FBB1FA617B3
:100CB000B70710F0A61BB70B881F991F5A95A9F705
:100CC00080959095BC01CD010895EE0FFF1F059012
:100CD000F491E02D099410E0C2E6D0E004C0FE01DA
:100CE0000E9465062196C336D107C9F7F894FFCF55
:100CF0000100000000000000A70161013A02A60106
:060D0000030219028E013E
:00000001FF
