:100000000C9463000C948B000C948B000C94A6024F
:100010000C94A6020C94A6020C948B000C948B00FA
:100020000C948B000C948B000C948B000C948B0024
:100030000C948B000C948B000C948B000C948B0014
:100040000C945C020C948B000C948B000C948B0031
:100050000C948B000C948B000C948B000C948B00F4
:100060000C948B000C948B000000000023002600F1
:10007000290000000000240027002A0000000000E2
:10008000250028002B0004040404040404040202D4
:100090000202020203030303030301020408102007
:1000A0004080010204081020010204081020000012
:1000B0000008000201000003040700000000000027
:1000C0000000AD041A0511241FBECFEFD8E0DEBF3B
:1000D000CDBF11E0A0E0B1E0E2E2FFE002C0059098
:1000E0000D92AA31B107D9F721E0AAE1B1E001C030
:1000F0001D92A638B207E1F710E0C2E6D0E004C0D6
:100100002197FE010E947E07C136D107C9F70E94E0
:100110001E030C9484070C94000090E0FC01E2554F
:10012000FF4F2491FC01E656FF4F3491FC01EA5742
:10013000FF4FE491EE23C9F0222339F0233001F17F
:10014000A8F4213019F1223029F1F0E0EE0FFF1F61
:10015000E458FF4FA591B4918FB7F894EC916111D9
:1001600026C030953E233C938FBF08952730A9F0D9
:100170002830C9F0243049F7809180008F7D03C07A
:10018000809180008F7780938000DFCF84B58F7758
:1001900084BDDBCF84B58F7DFBCF8091B0008F779E
:1001A0008093B000D2CF8091B0008F7DF9CF3E2BED
:1001B000DACFCF93DF9390E0FC01E656FF4F249116
:1001C0008A579F4FFC0184918823D1F090E0880FDB
:1001D000991FFC01EE58FF4FA591B491FC01E45822
:1001E000FF4FC591D49161110EC09FB7F8948C91C7
:1001F000E22FE0958E238C932881E223E8839FBF32
:10020000DF91CF9108958FB7F894EC91E22BEC93A6
:100210008FBFF6CF3FB7F894809182019091830110
:10022000A0918401B091850126B5A89B05C02F3F00
:1002300019F00196A11DB11D3FBFBA2FA92F982F0C
:100240008827BC01CD01620F711D811D911D42E007
:10025000660F771F881F991F4A95D1F708958F92CF
:100260009F92AF92BF92CF92DF92EF92FF924B019B
:100270005C010E940A016B017C010E940A016C1959
:100280007D098E099F09683E734081059105A8F399
:1002900021E0821A9108A108B10888EEC80E83E017
:1002A000D81EE11CF11C81149104A104B10429F7AA
:1002B000FF90EF90DF90CF90BF90AF909F908F9086
:1002C0000895AF92BF92CF92DF92EF92FF920F9379
:1002D0001F93CF93DF936C017B018B01040F151FDC
:1002E000EB015E01AE18BF08C017D10759F0699144
:1002F000D601ED91FC910190F081E02DC6010995A8
:10030000892B79F7C501DF91CF911F910F91FF9054
:10031000EF90DF90CF90BF90AF90089520915C0157
:1003200030915D012817390771F490915A0180913D
:100330005B01981741F0E0915A01F0E0E65EFE4F54
:10034000808190E008958FEF9FEF08950895EF92D8
:10035000FF920F931F93CF93DF93DC015C96ED9098
:10036000FC905D97E114F10479F481E090E013963C
:100370009C938E93129790E080E0DF91CF911F9134
:100380000F91FF90EF9008955196ED91FC91529747
:1003900050968C915097982F90950FB75E962C9110
:1003A0005E97122F127021FD6095F8942081112321
:1003B00019F1282B2083E7012197F1F728E0462F38
:1003C00050E0308160FF1AC0382B3083E70121975D
:1003D000F1F7BA0175956795215089F7112381F0DE
:1003E0008081892380830FBF5C968D919C910197BA
:1003F000F1F781E090E0C1CF2923DCCF3923E5CFAD
:100400009081892BEFCF20915C0130915D012817FD
:10041000390761F480915B0120915A0190E0805C82
:100420009F4F821B91098F739927089590E080E078
:10043000089520915C0130915D0128173907B9F4C6
:1004400090915A0180915B01981789F0E0915A01CF
:10045000F0E0E65EFE4F808120915A0130E02F5F90
:100460003F4F2F73332720935A0190E008958FEF69
:100470009FEF089590E080E008951F93CF93DF935E
:10048000C82F162FD42F682F8EE591E00E94A70168
:10049000612F8EE591E00E94A701C07FC13B40F42F
:1004A0006D2F8EE591E0DF91CF911F910C94A70104
:1004B000DF91CF911F9108951F920F920FB60F9267
:1004C00011242F933F938F939F93AF93BF9380916A
:1004D0007E0190917F01A0918001B09181013091C6
:1004E0007D0123E0230F2D3758F50196A11DB11D85
:1004F00020937D0180937E0190937F01A0938001E2
:10050000B09381018091820190918301A091840137
:10051000B09185010196A11DB11D80938201909338
:100520008301A0938401B0938501BF91AF919F9106
:100530008F913F912F910F900FBE0F901F901895A4
:1005400026E8230F0296A11DB11DD2CF1F920F9254
:100550000FB60F9211242F933F934F935F936F9396
:100560007F938F939F93AF93BF93EF93FF93E0910C
:100570005C01F0915D01309749F0A685B7858585CE
:10058000968D91FF14C09C918923A1F4FF91EF9166
:10059000BF91AF919F918F917F916F915F914F919B
:1005A0003F912F910F900FBE0F901F9018959C9127
:1005B000892361F7A389B4899C91858980958923D2
:1005C0008C93868997890197F1F7608D718DA68547
:1005D000B785558538E020E0CB010197F1F7822FF0
:1005E00090E095958795282F4C91452309F0206838
:1005F000315091F7868D81FD209580915B0190E0CF
:1006000001968F73992730915A01381799F0A0916C
:100610005B01B0E0A65EBE4F2C9380935B01828DA0
:10062000938D0197F1F7A389B4898C919589892BD2
:100630008C93ACCF868D8160868FF1CF789484B512
:10064000826084BD84B5816084BD85B5826085BDCE
:1006500085B5816085BD80916E00816080936E005C
:10066000109281008091810082608093810080914E
:1006700081008160809381008091800081608093FF
:1006800080008091B10084608093B1008091B000BF
:1006900081608093B00080917A00846080937A00BA
:1006A00080917A00826080937A0080917A008160E4
:1006B00080937A0080917A00806880937A0010920B
:1006C000C100109279011092780110927701109276
:1006D000760110927501109274018DE790E090936D
:1006E0007B0180937A0190916A01963108F047C0AE
:1006F0002DE230E030937501209374012BE730E058
:10070000309377012093760124E530E0309379012E
:10071000209378012091680084E0983048F031E01F
:100720009E3008F430E081E001C0880F3A95EAF786
:10073000822B809368002DE630E0983050F02BE655
:1007400030E09E3030F02CE630E0963110F030E0B2
:1007500020E03093720120937101292F30E098300E
:1007600008F0EEC081E001C0880F9A95EAF7809307
:10077000730180917A0190917B010197F1F780914B
:10078000780190917901892B49F1E0915C01F09118
:100790005D0181E0EE35F80709F1309739F0A38962
:1007A000B4899C918589809589238C9380917C0163
:1007B0008E7F80937C0110925B0110925A018EE52E
:1007C00091E090935D0180935C01E0917101F09163
:1007D0007201808190917301892B808361E084E0B4
:1007E0000E94D90060E084E00E948D0064E670E021
:1007F00080E090E00E942F0161E084E00E948D0083
:1008000064E670E080E090E00E942F01C0E1D0E05B
:1008100000E810E088E1282E312C90E4892E912CFC
:1008200020E0A22E20E0B22EC0900001D090010165
:10083000E0900201F09003012DEF39E744E650E427
:10084000C701B6010E94E9062B013C01A7019601F0
:1008500060E070E080E89FE30E94F5059B01AC0139
:10086000C301B2010E94E906609300017093010187
:10087000809302019093030120E030E040E05FE4C8
:100880000E94E9060E946206CB010E9487050E9431
:1008900082057C010E9482059C01C7016BE770E024
:1008A0000E945607E82FC901BE010E94560740E08A
:1008B0006E2F806C0E943D020E9482056C010E9496
:1008C00082057C010E9482059C01C601B8010E943C
:1008D0005607482FC701B8010E945607E82FC901E3
:1008E000BE010E9456076E2F806B0E943D020E943F
:1008F00082056C010E9482057C010E9482059C0198
:10090000C601B1010E945607482FC701B4010E94D9
:100910005607E8E1E80FC901BE010E9456076E2F95
:1009200080690E943D026EE370E080E090E00E94EA
:100930002F01A114B10409F477CF0E94000074CFF5
:100940009E3040F42850310981E001C0880F2A957B
:10095000EAF70DCF2E503109F7CF109261011092B6
:10096000600188EE93E0A0E0B0E080936201909394
:100970006301A0936401B09365018CE091E09093D2
:100980005F0180935E0110927501109274011092C4
:1009900077011092760110927901109278011092ED
:1009A0007B0110927A0160917C016E7F6D7F609374
:1009B0007C016695617081E0682783E00E948D006C
:1009C00061E083E00E94D900EDE9F0E0E491E0937A
:1009D0006E01E9E8F0E0E491F0E0EE0FFF1FE4586B
:1009E000FF4F859194919093700180936F0160E027
:1009F00082E00E94D90080917C0181FD04C061E009
:100A000082E00E948D0082E080936A01ECE9F0E0D0
:100A1000E491E0936B01E8E8F0E0E491F0E0EE0FA0
:100A2000FF1FE859FF4F8591949190936D0180933A
:100A30006C0108958CE091E090935F0180935E01DA
:100A400080915C0190915D018E55914071F4E0912F
:100A50007101F091720190818091730180958923D9
:100A6000808310925D0110925C0108958F929F9295
:100A7000AF92BF92CF92DF92EF92FF92CF93DF932C
:100A8000EC01688179818A819B81611571058105FD
:100A9000910521F464E279ED8BE597E02DE133EFE8
:100AA00041E050E00E94920549015A019B01AC01CE
:100AB000A7EAB1E40E94B1056B017C01ACEEB4EF92
:100AC000A50194010E94BF05DC01CB018C0D9D1D89
:100AD000AE1DBF1DB7FF03C00197A109B0488883B1
:100AE0009983AA83BB839F77DF91CF91FF90EF908B
:100AF000DF90CF90BF90AF909F908F9008950E940D
:100B00003605089584E091E00E9436050895B0E02E
:100B1000A0E08093040190930501A0930601B09397
:100B200007010895052E97FB1EF400940E94A90565
:100B300057FD07D00E94C40507FC03D04EF40C9467
:100B4000A90550954095309521953F4F4F4F5F4FE8
:100B5000089590958095709561957F4F8F4F9F4F29
:100B600008950E94E605A59F900DB49F900DA49F47
:100B7000800D911D11240895B7FF0C94B1050E94BA
:100B8000B105821B930B0895A1E21A2EAA1BBB1B71
:100B9000FD010DC0AA1FBB1FEE1FFF1FA217B30749
:100BA000E407F50720F0A21BB30BE40BF50B661F5F
:100BB000771F881F991F1A9469F760957095809523
:100BC00090959B01AC01BD01CF010895A29FB0019A
:100BD000B39FC001A39F700D811D1124911DB29F71
:100BE000700D811D1124911D08955058BB27AA270F
:100BF0000E940D060C94AF060E94A10638F00E94D8
:100C0000A80620F039F49F3F19F426F40C949E06B0
:100C10000EF4E095E7FB0C949806E92F0E94C006BD
:100C200058F3BA17620773078407950720F079F421
:100C3000A6F50C94E2060EF4E0950B2EBA2FA02D2B
:100C40000B01B90190010C01CA01A0011124FF2779
:100C5000591B99F0593F50F4503E68F11A16F04074
:100C6000A22F232F342F4427585FF3CF4695379573
:100C70002795A795F0405395C9F77EF41F16BA0B38
:100C8000620B730B840BBAF09150A1F0FF0FBB1FE6
:100C9000661F771F881FC2F70EC0BA0F621F731F2F
:100CA000841F48F4879577956795B795F7959E3F8C
:100CB00008F0B0CF9395880F08F09927EE0F97951D
:100CC000879508950E9469066894B1110C94E30613
:100CD00008950E94C80688F09F5798F0B92F992769
:100CE000B751B0F0E1F0660F771F881F991F1AF017
:100CF000BA95C9F714C0B13091F00E94E206B1E094
:100D000008950C94E206672F782F8827B85F39F092
:100D1000B93FCCF3869577956795B395D9F73EF4AF
:100D200090958095709561957F4F8F4F9F4F089557
:100D300097F99F6780E870E060E008959FEF80EC8E
:100D4000089500240A941616170618060906089531
:100D500000240A9412161306140605060895092E97
:100D60000394000C11F4882352F0BB0F40F4BF2B06
:100D700011F460FF04C06F5F7F4F8F4F9F4F089546
:100D800057FD9058440F551F59F05F3F71F047953C
:100D9000880F97FB991F61F09F3F79F08795089521
:100DA000121613061406551FF2CF4695F1DF08C040
:100DB000161617061806991FF1CF8695710561055D
:100DC00008940895E894BB2766277727CB0197F905
:100DD00008950E94FC060C94AF060E94A10638F00C
:100DE0000E94A80620F0952311F00C9498060C940C
:100DF0009E0611240C94E3060E94C00670F3959F92
:100E0000C1F3950F50E0551F629FF001729FBB2701
:100E1000F00DB11D639FAA27F00DB11DAA1F649F9D
:100E20006627B00DA11D661F829F2227B00DA11D50
:100E3000621F739FB00DA11D621F839FA00D611DD6
:100E4000221F749F3327A00D611D231F849F600DF7
:100E5000211D822F762F6A2F11249F5750409AF020
:100E6000F1F088234AF0EE0FFF1FBB1F661F771FAC
:100E7000881F91505040A9F79E3F510580F00C9477
:100E800098060C94E3065F3FE4F3983ED4F386950E
:100E900077956795B795F795E7959F5FC1F7FE2B17
:100EA000880F911D9695879597F9089597FB072EC2
:100EB00016F4009407D077FD09D00E946A0707FC5A
:100EC00005D03EF4909581959F4F0895709561955A
:100ED0007F4F0895AA1BBB1B51E107C0AA1FBB1F70
:100EE000A617B70710F0A61BB70B881F991F5A95B6
:100EF000A9F780959095BC01CD010895EE0FFF1FD5
:100F00000590F491E02D099410E0C2E6D0E004C011
:100F1000FE010E947E072196C336D107C9F7F894D7
:020F2000FFCF01
:100F2200CDCCCC3D0100000000000000A701610112
:0A0F32003A02A601030219028E0123
:00000001FF
