:100000000C9463000C948B000C948B000C949C0259
:100010000C949C020C949C020C948B000C948B000E
:100020000C948B000C948B000C948B000C948B0024
:100030000C948B000C948B000C948B000C948B0014
:100040000C9452020C948B000C948B000C948B003B
:100050000C948B000C948B000C948B000C948B00F4
:100060000C948B000C948B000000000023002600F1
:10007000290000000000240027002A0000000000E2
:10008000250028002B0004040404040404040202D4
:100090000202020203030303030301020408102007
:1000A0004080010204081020010204081020000012
:1000B0000008000201000003040700000000000027
:1000C00000000605730511241FBECFEFD8E0DEBF88
:1000D000CDBF11E0A0E0B1E0E2E1FDE002C005909B
:1000E0000D92AE31B107D9F723E0AEE1B1E001C026
:1000F0001D92AC38B207E1F710E0C2E6D0E004C0D0
:100100002197FE010E947606C136D107C9F70E94E9
:1001100014030C947C060C94000090E0FC01E25562
:10012000FF4F2491FC01E656FF4F3491FC01EA5742
:10013000FF4FE491EE23C9F0222339F0233001F17F
:10014000A8F4213019F1223029F1F0E0EE0FFF1F61
:10015000E458FF4FA591B4918FB7F894EC916111D9
:1001600026C030953E233C938FBF08952730A9F0D9
:100170002830C9F0243049F7809180008F7D03C07A
:10018000809180008F7780938000DFCF84B58F7758
:1001900084BDDBCF84B58F7DFBCF8091B0008F779E
:1001A0008093B000D2CF8091B0008F7DF9CF3E2BED
:1001B000DACFCF93DF9390E0FC01E656FF4F249116
:1001C0008A579F4FFC0184918823D1F090E0880FDB
:1001D000991FFC01EE58FF4FA591B491FC01E45822
:1001E000FF4FC591D49161110EC09FB7F8948C91C7
:1001F000E22FE0958E238C932881E223E8839FBF32
:10020000DF91CF9108958FB7F894EC91E22BEC93A6
:100210008FBFF6CF3FB7F894809188039091890300
:10022000A0918A03B0918B0326B5A89B05C02F3FF0
:1002300019F00196A11DB11D3FBFBA2FA92F982F0C
:100240008827BC01CD01620F711D811D911D42E007
:10025000660F771F881F991F4A95D1F708958F92CF
:100260009F92AF92BF92CF92DF92EF92FF924B019B
:100270005C010E940A016B017C010E940A016C1959
:100280007D098E099F09683E734081059105A8F399
:1002900021E0821A9108A108B10888EEC80E83E017
:1002A000D81EE11CF11C81149104A104B10429F7AA
:1002B000FF90EF90DF90CF90BF90AF909F908F9086
:1002C0000895AF92BF92CF92DF92EF92FF920F9379
:1002D0001F93CF93DF936C017B018B01040F151FDC
:1002E000EB015E01AE18BF08C017D10759F0699144
:1002F000D601ED91FC910190F081E02DC6010995A8
:10030000892B79F7C501DF91CF911F910F91FF9054
:10031000EF90DF90CF90BF90AF9008952091600153
:10032000309161012817390771F490915E01809135
:100330005F01981741F0E0915E01F0E0E25EFE4F50
:10034000808190E008958FEF9FEF08950895EF92D8
:10035000FF920F931F93CF93DF93DC015C96ED9098
:10036000FC905D97E114F10479F481E090E013963C
:100370009C938E93129790E080E0DF91CF911F9134
:100380000F91FF90EF9008955196ED91FC91529747
:1003900050968C915097982F90950FB75E962C9110
:1003A0005E97122F127021FD6095F8942081112321
:1003B00019F1282B2083E7012197F1F728E0462F38
:1003C00050E0308160FF1AC0382B3083E70121975D
:1003D000F1F7BA0175956795215089F7112381F0DE
:1003E0008081892380830FBF5C968D919C910197BA
:1003F000F1F781E090E0C1CF2923DCCF3923E5CFAD
:100400009081892BEFCF20916001309161012817F5
:10041000390761F480915F0120915E0190E0805C7A
:100420009F4F821B91098F739927089590E080E078
:100430000895209160013091610128173907B9F4BE
:1004400090915E0180915F01981789F0E0915E01C3
:10045000F0E0E25EFE4F808120915E0130E02F5F90
:100460003F4F2F73332720935E0190E008958FEF65
:100470009FEF089590E080E00895CF93DF93D62F0B
:10048000C42F682F82E691E00E94A7016D2F82E6BB
:1004900091E00E94A7016C2F82E691E0DF91CF915D
:1004A0000C94A7011F920F920FB60F9211242F9355
:1004B0003F938F939F93AF93BF93809184039091C9
:1004C0008503A0918603B09187033091830323E0D5
:1004D000230F2D3758F50196A11DB11D20938303DD
:1004E0008093840390938503A0938603B09387033E
:1004F0008091880390918903A0918A03B0918B0326
:100500000196A11DB11D8093880390938903A09348
:100510008A03B0938B03BF91AF919F918F913F91CD
:100520002F910F900FBE0F901F90189526E8230F64
:100530000296A11DB11DD2CF1F920F920FB60F923E
:1005400011242F933F934F935F936F937F938F93D8
:100550009F93AF93BF93EF93FF93E0916001F0916E
:100560006101309749F0A685B7858585968D91FF05
:1005700014C09C918923A1F4FF91EF91BF91AF9199
:100580009F918F917F916F915F914F913F912F91AB
:100590000F900FBE0F901F9018959C91892361F7C3
:1005A000A389B4899C918589809589238C938689B8
:1005B00097890197F1F7608D718DA685B78555856F
:1005C00038E020E0CB010197F1F7822F90E095957C
:1005D0008795282F4C91452309F02068315091F7D9
:1005E000868D81FD209580915F0190E001968F734B
:1005F000992730915E01381799F0A0915F01B0E022
:10060000A25EBE4F2C9380935F01828D938D0197E4
:10061000F1F7A389B4898C919589892B8C93ACCF00
:10062000868D8160868FF1CF789484B5826084BD99
:1006300084B5816084BD85B5826085BD85B58160E6
:1006400085BD80916E00816080936E001092810064
:10065000809181008260809381008091810081601F
:1006600080938100809180008160809380008091E0
:10067000B10084608093B1008091B000816080936C
:10068000B00080917A00846080937A0080917A0033
:10069000826080937A0080917A00816080937A00F2
:1006A00080917A00806880937A001092C100109245
:1006B0007D0110927C0110927B0110927A011092C0
:1006C0007901109278018DE790E090937F018093FB
:1006D0007E0190916E01963108F047C02DE230E026
:1006E00030937901209378012BE730E030937B0140
:1006F00020937A0124E530E030937D0120937C0142
:100700002091680084E0983048F031E09E3008F491
:1007100030E081E001C0880F3A95EAF7822B8093A0
:1007200068002DE630E0983050F02BE630E09E3047
:1007300030F02CE630E0963110F030E020E03093DD
:10074000760120937501292F30E0983008F03DC1E3
:1007500081E001C0880F9A95EAF780937701809134
:100760007E0190917F010197F1F780917C0190913A
:100770007D01892B49F1E0916001F091610181E0F7
:10078000E236F80709F1309739F0A389B4899C91D2
:100790008589809589238C93809180018E7F8093B9
:1007A000800110925F0110925E0182E691E09093C9
:1007B000610180936001E0917501F0917601808183
:1007C00090917701892B808361E084E00E94D900B9
:1007D00060E084E00E948D0064E670E080E090E0DC
:1007E0000E942F0161E084E00E948D0064E670E0C9
:1007F00080E090E00E942F0140E667E089EB0E94D4
:100800003D0240E36BE589EB0E943D0210928202BB
:1008100010928102C2E0D0E0809181029091820228
:100820008F3F910509F00CF4DDC043E8642E42E0EF
:10083000742E00E011E0C0E2D0E050E0C52E50E0A0
:10084000D52EE12CFF24F394D301F8011D923197AA
:10085000E9F723E8822E22E0922E31E8A32E31E040
:10086000B32EEFEFF0E0D5019D915D01DF01BB27D5
:10087000AF57BE4F8C91282F30E0220F331F290F26
:10088000311DC50181589140B8010E944E06DC011E
:10089000AF57BE4F8C91220F331F2A5E3E4F280F59
:1008A000311DD9018C91D4018D934D013196EF3FCB
:1008B000B1E0FB07C1F6F0928202E092810280E093
:1008C000E3E8F2E0A1E8B1E001900D928A95E1F74A
:1008D00080918101813051F40E94DB05BE010E94AC
:1008E0004E06482F63E289E90E943D028091820111
:1008F000813051F40E94DB05BE010E944E06482F54
:1009000064E289E90E943D0280918301813051F4C3
:100910000E94DB05BE010E944E06482F65E289E970
:100920000E943D0280918401813051F40E94DB05D8
:10093000BE010E944E06482F66E289E90E943D02F0
:1009400080918501813051F40E94DB05BE010E9437
:100950004E06482F67E289E90E943D028091860198
:10096000813051F40E94DB05BE010E944E06482FE3
:1009700068E289E90E943D0280918701813051F44B
:100980000E94DB05BE010E944E06482F69E289E9FC
:100990000E943D0280918801813051F40E94DB0564
:1009A000BE010E944E06482F6AE289E90E943D027C
:1009B0006AEF70E080E090E00E942F01C114D10442
:1009C00009F442CF0E9400003FCF9E3040F42850EF
:1009D000310981E001C0880F2A95EAF7BECE2E507A
:1009E0003109F7CF0E94DB0520918102309182020C
:1009F000F901EF57FE4FBE010E944E0680832F5F24
:100A00003F4F309382022093810206CF10926501FE
:100A10001092640188EE93E0A0E0B0E0809366015C
:100A200090936701A0936801B093690188E091E019
:100A30009093630180936201109279011092780182
:100A400010927B0110927A0110927D0110927C012C
:100A500010927F0110927E01609180016E7F6D7F08
:100A6000609380016695617081E0682783E00E9451
:100A70008D0061E083E00E94D900EDE9F0E0E491AF
:100A8000E0937201E9E8F0E0E491F0E0EE0FFF1F7F
:100A9000E458FF4F85919491909374018093730172
:100AA00060E082E00E94D9008091800181FD04C055
:100AB00061E082E00E948D0082E080936E01ECE9AB
:100AC000F0E0E491E0936F01E8E8F0E0E491F0E019
:100AD000EE0FFF1FE859FF4F85919491909371019C
:100AE00080937001089588E091E090936301809372
:100AF000620180916001909161018256914071F490
:100B0000E0917501F0917601908180917701809557
:100B100089238083109261011092600108958F9261
:100B20009F92AF92BF92CF92DF92EF92FF92CF93BC
:100B3000DF93EC01688179818A819B816115710560
:100B40008105910521F464E279ED8BE597E02DE1D3
:100B500033EF41E050E00E94EB0549015A019B014F
:100B6000AC01A7EAB1E40E940A066B017C01ACEE7D
:100B7000B4EFA50194010E941806DC01CB018C0D95
:100B80009D1DAE1DBF1DB7FF03C00197A109B04851
:100B900088839983AA83BB839F77DF91CF91FF904E
:100BA000EF90DF90CF90BF90AF909F908F9008957F
:100BB0000E948F05089580E091E00E948F050895BE
:100BC000B0E0A0E08093000190930101A0930201A6
:100BD000B09303010895052E97FB1EF400940E9424
:100BE000020657FD07D00E941D0607FC03D04EF4F5
:100BF0000C94020650954095309521953F4F4F4FEC
:100C00005F4F089590958095709561957F4F8F4FB8
:100C10009F4F08950E943F06A59F900DB49F900D91
:100C2000A49F800D911D11240895B7FF0C940A060E
:100C30000E940A06821B930B0895A1E21A2EAA1B9A
:100C4000BB1BFD010DC0AA1FBB1FEE1FFF1FA2177C
:100C5000B307E407F50720F0A21BB30BE40BF50B79
:100C6000661F771F881F991F1A9469F76095709502
:100C7000809590959B01AC01BD01CF010895A29F85
:100C8000B001B39FC001A39F700D811D1124911D60
:100C9000B29F700D811D1124911D089597FB072EA1
:100CA00016F4009407D077FD09D00E94620607FC75
:100CB00005D03EF4909581959F4F0895709561956C
:100CC0007F4F0895AA1BBB1B51E107C0AA1FBB1F82
:100CD000A617B70710F0A61BB70B881F991F5A95C8
:100CE000A9F780959095BC01CD010895EE0FFF1FE7
:100CF0000590F491E02D099410E0C2E6D0E004C024
:100D0000FE010E9476062196C336D107C9F7F894F2
:020D1000FFCF13
:100D12000100000000000000A70161013A02A601E3
:0E0D2200030219028E01000101010100000010
:00000001FF
